:020000040800F2
:1000000000300020492F0008C5040008C70400087C
:1000100000000000000000000000000000000000E0
:10002000000000000000000000000000592A000845
:100030000000000000000000C12A00080528000898
:10004000992F000800000000992F0008992F000840
:10005000992F0008992F0008992F0008C90400085B
:1000600000000000992F0008992F0008992F000820
:10007000992F0008D9040008992F000800000000FB
:10008000992F00080000000000000000992F0008D0
:1000900000000000992F0008992F0008992F0008F0
:1000A00000000000992F000800000000992F0008B0
:1000B000992F000800000000000000000000000070
:1000C000002243088B4274D303098B425FD3030A97
:1000D0008B4244D3030B8B4228D3030C8B420DD3AA
:1000E000FF22090212BA030C8B4202D31212090238
:1000F00065D0030B8B4219D300E0090AC30B8B4276
:1001000001D3CB03C01A5241830B8B4201D38B0323
:10011000C01A5241430B8B4201D34B03C01A5241C8
:10012000030B8B4201D30B03C01A5241C30A8B420B
:1001300001D3CB02C01A5241830A8B4201D38B02F6
:10014000C01A5241430A8B4201D34B02C01A52419A
:10015000030A8B4201D30B02C01A5241CDD2C3090C
:100160008B4201D3CB01C01A524183098B4201D388
:100170008B01C01A524143098B4201D34B01C01A73
:10018000524103098B4201D30B01C01A5241C308EB
:100190008B4201D3CB00C01A524183088B4201D35A
:1001A0008B00C01A524143088B4201D34B00C01A46
:1001B0005241411A00D20146524110467047FFE7B2
:1001C00001B5002000F006F802BDC0460029F7D0B6
:1001D00076E770477047C0460448054B10B5834228
:1001E00003D0044B002B00D0984710BD70000020B6
:1001F000700000200000000006480749091A8B1013
:10020000C90FC91810B5491003D0044B002B00D0FA
:10021000984710BD70000020700000200000000012
:1002200010B5074C2378002B09D1FFF7D5FF054BFC
:10023000002B02D0044800E000BF0123237010BD52
:100240007000002000000000D4390008054B10B5F4
:10025000002B03D00449054800E000BFFFF7CCFFA6
:1002600010BDC0460000000074000020D439000812
:10027000F0B5CE46474680B58BB01422002105A8C4
:1002800003F09CF8394B596B042211435963596BA5
:100290000A400192019A5A6B20273A435A635A6BDB
:1002A0003A400292029A5A6B01252A435A635A6BCA
:1002B0002A400392039A5A6B022422435A635B6BCF
:1002C00023400493049BA026F60500222021300041
:1002D00000F084FE264B994600224021180000F0D1
:1002E0007DFE244B984600220121180000F076FE86
:1002F0000C2305930694002407940894099505A9F6
:10030000300000F08DFD059706950794089405A927
:10031000300000F085FDC0239B0005931223069357
:10032000079408940C3B099305A9134800F078FD45
:100330004023059306950794089405A9484600F0C4
:100340006FFD059506950794089405A9404600F0B1
:1003500067FD00220021072000F0CAFA072000F004
:10036000CBFA0BB0C0BCB946B046F0BD001002409D
:1003700000080050000C00500004005010B5026846
:10038000034B9A4200D010BD00F070FAFBE7C04664
:10039000002C014072B6FEE700B58DB01C22002192
:1003A00005A803F00BF814220021684603F006F8B4
:1003B00002230593FE330893C03B0A9305A800F07F
:1003C000A7FA00280ED1072300930023019302937C
:1003D000039304930121684600F026FC002803D112
:1003E0000DB000BDFFF7D6FFFFF7D4FF10B500F04A
:1003F00030FAFFF7D1FFFFF73BFF02F011FA00F0F0
:1004000045F8002002F0EAFC0121002002F008FD7E
:100410000949E1235B020B6000234B600B814B8198
:100420008B81002002F062FD002801D0FFF7B2FFAF
:1004300002F012FAFEE7C0468C00002010B5402101
:10044000054800F0D1FD054802F0C2FEFA20800008
:1004500002F098FAF3E7C04600080050EC390008B3
:1004600010B50121054800F0BFFD054802F0B0FEBF
:10047000FA20800002F086FAF3E7C046000C005034
:10048000003A0008704700207047000010B5074A86
:100490000748002102F006FA064B1860064A074892
:1004A000002102F0FFF9064B186010BD743A0008F5
:1004B0003D040008A0000020503A00086104000834
:1004C0009C000020FEE7FEE710B5024800F0AEFDFC
:1004D00010BDC046E81C002010B5024800F098F896
:1004E00010BDC046A400002000B583B00C4B196CB1
:1004F000012211431964196C0A400092009ADA6BC8
:10050000802149050A43DA63DB6B0B400193019BB1
:10051000022000220321404200F0EAF903B000BDAE
:100520000010024000B589B0010000220D2000F04B
:10053000DFF90D2000F0E0F9134B1A6C802109015E
:100540000A431A641B6C0B400193019B02A903A888
:1005500000F04CFC00F036FC0C49FFF7B1FD431EE7
:100560000B480C4A02600C4AC260436000230361DE
:10057000836000F03BF9002802D0012009B000BDE3
:10058000034800F00DF8F9E70010024040420F0068
:10059000A4000020002C0140E70300007047000089
:1005A0003D23C35C012B22D13C330222C25402689A
:1005B000D36801210B43D3600368104A934208D0EB
:1005C0000F4A934205D01A6801210A431A6000209D
:1005D0000EE09A680B490A40062A0AD007398A4277
:1005E00009D01A6801210A431A60002000E00120A6
:1005F00070470020FCE70020FAE7C046002C0140CD
:1006000000040040070001007047704770477047C2
:1006100070B505000368DE681C69A2070ED5B20735
:100620000CD5032252421A610123037703689B69A8
:100630009B0755D0FFF7E9FF00232B77630712D5FF
:10064000730710D52B68052252421A6102232B77BB
:100650002B689A69C0239B001A4247D02800FFF7F5
:10066000D4FF00232B77230710D533070ED52B6833
:10067000092252421A6104232B772B68DB699B07FE
:100680003BD02800FFF7C1FF00232B77E30612D5EC
:10069000F30610D52B68112252421A6108232B77DA
:1006A0002B68DA69C0239B001A422DD02800FFF77F
:1006B000ACFF00232B77E30701D5F3072BD42306E8
:1006C00001D533062FD4E30501D5330633D46306B1
:1006D00001D5730636D4A40601D5B6063AD470BD4A
:1006E000FFF792FF2800FFF791FFA5E72800FFF72B
:1006F0008BFF2800FFF78AFFB3E72800FFF784FF8E
:100700002800FFF783FFBFE72800FFF77DFF2800E1
:10071000FFF77CFFCDE72B68022252421A612800C6
:10072000FFF72CFECBE72B68812252421A6128008A
:1007300000F08DF8C7E72B680A4A1A61280000F01C
:1007400087F8C4E72B68412252421A612800FFF75C
:100750005EFFC0E72B68212252421A61280000F098
:1007600075F8BCE7FFFEFFFF03681A4A904202D00B
:10077000194A904203D1702293434A681343154AA1
:1007800090420BD0144A904208D0144A904205D0AF
:10079000134A904202D0134A904203D1124A1340A6
:1007A000CA681343802293434A69134303608B68EA
:1007B000C3620B688362074B984205D0084B98428E
:1007C00002D0084B984201D10B69036301234361B6
:1007D0007047C046002C014000040040002000404B
:1007E0000044014000480140FFFCFFFF70B5041EBB
:1007F0002AD03D23C35C002B20D03D250223635526
:10080000210001C9FFF7B0FF01234822A3540A3A8F
:10081000A3540132A3540132A3540132A354013230
:10082000A3540132A3540132A3540132A354013220
:10083000A3540132A3546355002070BD3C33002201
:10084000C254FFF7ABFED8E70120F6E770477047C8
:10085000704710B50320FFF765FE041E02D0012487
:10086000200010BDFFF740FEFAE70000034B1B78A5
:10087000034A11685B1813607047C04600000020EF
:10088000F0000020014B18687047C046F0000020BF
:1008900070B5002811DB8308134DC0339B005C59F1
:1008A00003221040C000FC3216008640B443890188
:1008B0000A40824022435A5170BD0F230340083B37
:1008C0009B0806339B00094A944663445C680322F4
:1008D0001040C000FC3215008540AC4389010A403D
:1008E000824022435A60E7E700E100E000ED00E0CB
:1008F00010B5FFF7CDFF10BD002805DB1F22024019
:1009000001239340014A13607047C04600E100E0B4
:1009100070B5041E00D139E10368DB072CD5A14B6B
:100920009A6838231340082B22D043688022520251
:1009300093422ED0A022D202934231D0994B1A6812
:1009400099490A401A601A6898490A401A6063680F
:10095000002B31D0FFF796FF0500924B1B689B03DD
:100960000AD4FFF78FFF401B6428F6D903200EE15D
:100970004368002B00D10BE123689B0747D5894BC7
:100980009B6838221A4261D1E368002B22D10120F2
:10099000FDE0844A116880235B020B431360D6E7B5
:1009A000804B19688022D2020A431A60196880229B
:1009B00052020A431A60CAE7FFF764FF0500794B49
:1009C0001B689B03D8D5FFF75DFF401B6428F6D951
:1009D0000320DCE0734B5A6875490A4061690902DB
:1009E0000A435A601A6873490A4021690A431A6027
:1009F0001B68DB0A07221A406F4BD3406F4A136013
:100A00006F4B1868FFF78EFD002800D0C2E0236806
:100A10001B0757D5634B9A6838231340182B4ED0C9
:100A2000A369002B77D05F4A136E01210B43136635
:100A3000FFF728FF05005B4B1B6E9B0742D4FFF7B7
:100A400021FF401B0228F6D90320A0E0E368002B19
:100A500022D0544A136857490B4021690B43136055
:100A6000116880235B000B431360FFF70BFF050049
:100A70004C4B1B685B0506D4FFF704FF401B0228A4
:100A8000F6D9032083E047494B68494A134062691D
:100A9000120213434B60BAE7424A136849490B40BC
:100AA0001360FFF7EFFE05003E4B1B685B05AED5FC
:100AB000FFF7E8FE401B0228F6D9032067E0A36990
:100AC000002B69D023685B0768D5364B9A683823BA
:100AD0001340202B32D0A368012B34D0052B38D003
:100AE000304BDA6D01218A43DA65DA6D03318A43CE
:100AF000DA65A368002B38D0FFF7C4FE0400294B49
:100B0000DB6D9B072FD4FFF7BDFE001B2E4B9842D9
:100B1000F5D903203BE0234A136E01218B43136672
:100B2000FFF7B0FE05001F4B1B6E9B07CAD5FFF7F2
:100B3000A9FE401B0228F6D9032028E0A368002B59
:100B40002ED0002023E0174AD36D01210B43D3653B
:100B5000CFE7144BDA6D04210A43DA65DA6D033905
:100B60000A43DA65C5E7002011E0FFF78BFE0400B9
:100B70000C4BDB6D9B0707D5FFF784FE001B124B68
:100B80009842F5D9032002E0002000E0012070BD6A
:100B90000120FCE70120FAE70120F8E70020F6E752
:100BA0000120F4E700100240FFFFFEFFFFFFFBFF04
:100BB000FF80FFFFFFC7FFFF006CDC020800002082
:100BC00004000020FFFEFFFF88130000144B9B6809
:100BD00038221A4207D1124B1A68D20A072313404F
:100BE0001048D84070470E4B9A6838231340082BA2
:100BF00010D00B4B9A6838231340202B0CD0084B95
:100C00009A6838231340182B01D00020EAE7FA2015
:100C1000C001E7E70348E5E780200002E2E7C046BD
:100C200000100240006CDC0270B504000D000028CA
:100C300000D1AAE0574B1A68072313408B4228D3F0
:100C400023689A0710D55B0707D553498A68534B29
:100C50001A40B0231B0113438B604F4A93685049DD
:100C60000B40E1680B4393602368DB0752D54A4A87
:100C700013681C218B43A1680B4313606368012B2D
:100C80001ED0002B38D1444A126852051BD40120D3
:100C900063E0404A136807218B432B431360FFF73F
:100CA000F1FD06003B4B1A6807231340AB42C7D047
:100CB000FFF7E8FD801B3B4A9042F3D903204CE04C
:100CC0001268920363D534498A680720824313432C
:100CD0008B60FFF7D7FD06002F4B9B6838221A4028
:100CE0006368DB009A4215D0FFF7CCFD801B2D4BCB
:100CF0009842F1D9032030E0032B05D0264AD26D6B
:100D00009207E0D4012028E0234A126E9207DAD439
:100D1000012022E01F4B1A6807231340AB421DD865
:100D200023685B0706D51C4A93681F490B4021695D
:100D30000B439360FFF74AFF174B9A68120A0F2381
:100D400013401A4A9B009A581F231340D840184B4F
:100D50001860184B1868FFF7E5FB70BD0D4A136863
:100D600007218B432B431360FFF78CFD0600094BD3
:100D70001A6807231340AB42D2D0FFF783FD801BD4
:100D8000084B9842F3D90320E7E70120E5E701206B
:100D9000E3E7C0460020024000100240FF84FFFF4E
:100DA000FFF0FFFF88130000FF8FFFFFD03A00081D
:100DB0000800002004000020014B18687047C0465E
:100DC0000800002010B5FFF7F7FF064B9A68120BDA
:100DD00007231340044A9B009A581F231340D8400E
:100DE00010BDC04600100240B03A000830B50723DD
:100DF0000360094A94681C4044609468F0252D0102
:100E00002C40C4609268E024E40122400261034A5D
:100E1000126813400B6030BD0010024000200240F9
:100E2000F0B5D6464F464646C0B500233BE0052503
:100E300000E00025A5402C003C43634D1832920091
:100E400054518022AF584A46D2433D004C46A543F8
:100E50004C68E40302D53D004C4625435A4C80279C
:100E6000E551842567593D0015404C68A40302D51F
:100E70003D004C462543544C8427E55127683D00EE
:100E800015404C68E40202D53D004C4625434E4CCB
:100E9000256065682A404C68A40201D54A462A4369
:100EA000494C626001330C682200DA4000D186E0D0
:100EB00001229A4026001640B1461442F2D04C68F6
:100EC000022C01D0122C18D1DD080835AD002C58A9
:100ED000A44607271F40BF000F24A2462600BE409D
:100EE000B04666464446A643B4460C69564626407C
:100EF0003400BC40664634432C500468A4465D0070
:100F00000324A2462700AF40B846FF436646444646
:100F1000A643B4464C68564626403400AC4066466C
:100F2000344304604C68661E012E03D9112C01D095
:100F3000122C12D184683C40A446CC68AC40664672
:100F400034438460446894434A68120994460122F9
:100F5000664632409A40224342604A68032A05D0DE
:100F6000C4683C408A68AA402243C2604A68D200F2
:100F700098D59A0814001834A400134D6759032417
:100F80001C40E4000F25A540AF43A025ED05A84275
:100F900000D14EE70D4DA8420BD00D4DA8420AD00E
:100FA0000C4DA84209D00C4DA84200D13FE70625C0
:100FB00040E701253EE702253CE703253AE7E0BC90
:100FC000BA46B146A846F0BD0018024000040050E1
:100FD00000080050000C005000140050002A01D0FE
:100FE000816170478162FCE7426913000B401B047A
:100FF00091430B4383617047012907D0022908D030
:10100000002909D1426082600800704742600020D8
:10101000FBE782600020F8E70120F6E7002802D015
:101020000160002070470120FCE7000070B5060059
:101030000268140C01252C401F2313409D406401BD
:101040000A4BE3181A68154204D01D604368002B50
:1010500000D09847064B9C46644423681D4204D048
:101060002560B368002B00D0984770BD0C18024073
:101070001018024030B5EFF31084012282F310887B
:1010800001680B68124D2B400B6084F31088EFF35E
:10109000108182F31088026893680E4C234093609D
:1010A00081F31088C36E012B06D08C232022C250FE
:1010B0000023C366436730BDEFF3108183F31088CC
:1010C000026813681024A343136081F31088ECE7CF
:1010D000DFFEFFFFFEFFFFEF7047000010B50400CA
:1010E00083680269134342691343C2691343016869
:1010F0000A686248024013430B60226853686049E3
:101100000B40E1680B435360A369226A1A432168CC
:101110008B685C48034013438B602268D36A0F21BD
:101120008B43616A0B43D3622368574A934230D0A2
:10113000564A93423ED01023E06980221202904228
:1011400042D0042B00D189E07BD8002B00D17FE076
:10115000022B74D14E4B1B685B09072119400131EA
:101160004C48FEF7ADFF626A4B4B5200D15AFEF776
:10117000A7FF61684B08C018FEF7A2FF0200103AF3
:10118000464B9A426FD823680004000CD8600020B8
:101190006AE03F4B5A6D03231340022B0CD005D855
:1011A000002B0BD0012B0BD10333C5E7032B09D147
:1011B0000533C1E70023BFE70223BDE70023BBE7F8
:1011C0001023B9E71023B7E7042B35D02AD8002B1A
:1011D0002CD0022B24D12E4B1B685B090721194010
:1011E00001312C48FEF76CFF626A2B4B5200D15A3A
:1011F000FEF766FF400061684B08C018FEF760FF0D
:101200000200103A254B9A422BD882B20F239A4300
:101210004008083B034013432268D360002023E0CA
:10122000012021E0082BDFD001201DE0FFF7CAFDDF
:101230000028D9D1002017E0FFF7C8FCF8E701200B
:1012400012E0082B02D1802000028CE701200BE085
:10125000FFF7B8FD002886D1002005E0FFF7B6FCB7
:10126000F8E7012000E0012001236A22A352023A9C
:10127000A35200236367A36710BDC046F369FFCF85
:10128000FFCFFFFFFFF4FF11003801400044004092
:1012900000100240006CDC02983A0008EFFF0000EA
:1012A000836A1B0706D5026853682C490B40816B83
:1012B0000B435360836ADB0706D5026853682849ED
:1012C0000B40C16A0B435360836A9B0706D50268D3
:1012D000536824490B40016B0B435360836A5B07DF
:1012E00006D50268536820490B40416B0B4353609D
:1012F000836ADB0606D5026893681C490B40C16B04
:101300000B439360836A9B0606D50268936818496D
:101310000B40016C0B439360836A5B060BD502683C
:10132000536814490B40416C0B435360426C80235B
:101330005B039A420AD0836A1B0606D5026853688B
:101340000D490B40C16C0B435360704702685368F2
:101350000A490B40816C0B435360ECE7FF7FFFFFB2
:10136000FFFFFDFFFFFFFEFFFFFFFBFFFFEFFFFFA4
:10137000FFDFFFFFFFFFEFFFFFFFF7FFFFFF9FFF15
:10138000F8B5CE46474680B506000D0017009946D1
:10139000089B98463368DC692C40641B63425C41BF
:1013A000BC422FD143460133F4D0FFF76BFA4B46D2
:1013B000C01A40452BD84346002B2AD033681A6800
:1013C0005207E7D5DA69120710D4DA691205E1D5B8
:1013D000802212011A623000FFF74CFE9023202277
:1013E000F2500C3B0022F25403200CE008241C6253
:1013F0003000FFF73FFE9023F4500C3B0022F254E4
:10140000012000E00020C0BCB946B046F8BD032072
:10141000F9E70320F7E7F0B5C64600B582B004004F
:101420000D0090461E008823C358202B66D100294A
:1014300069D0002A69D0826880235B019A4204D176
:101440000369002B01D1CB0761D490230022E25025
:10145000083B2132E250FFF715FA070054234246B9
:10146000E2520233E252A26880235B019A4202D028
:101470000023984618E02369002B2AD000239846C1
:1014800012E088232022E250032038E043461B88E4
:101490002268DB05DB0D936202239C46E044562361
:1014A000E25A013A92B2E2525623E35A9BB2002B1F
:1014B00012D000963B00002280212000FFF760FF41
:1014C0000028DED1002DE1D02A7823689A62013508
:1014D000E5E7A8460025E7E700963B00002240210B
:1014E0002000FFF74DFF002803D188232022E2507F
:1014F00005E088232022E250032000E0022002B011
:1015000080BCB846F0BD0120F9E70120F7E70120D3
:10151000F5E7000030B583B0040090230022C250EC
:10152000FFF7B0F9050023681B681B0710D4236878
:101530001B685B072BD420238822A3500432A350BE
:101540000023E3662367083AA354002003B030BDAC
:101550008021234B00930300002289032000FFF722
:101560000FFF0028E3D0EFF31081012383F31088ED
:101570002268136880208343136081F310888823D6
:101580002022E250043B0022E2547D38DEE7802135
:10159000134B00932B000022C9032000FFF7F0FE3D
:1015A0000028C8D0EFF31080012282F31088216850
:1015B0000B680C4D2B400B6080F31088EFF310800C
:1015C00082F3108821688B6893438B6080F31088C6
:1015D0008C231F32E250083B0022E2540320B5E77F
:1015E000FFFFFF01DFFEFFFF10B5041E30D0882390
:1015F000C358002B22D088232422E250226813688B
:1016000001218B431360A36A002B1DD12000FFF73B
:1016100065FD012811D0226853680E490B405360C4
:10162000226893682A218B439360226813682939C2
:101630000B4313602000FFF76DFF10BD84330022C1
:10164000C254FFF749FDD6E72000FFF729FEDDE78A
:101650000120F2E7FFB7FFFF024B802212059A60DC
:101660007047C04600ED00E00300083343600122EC
:1016700052428260C360036100230360704700230D
:101680000361704730B50D686B1C10D00300083340
:101690001C005B681A68AA42FAD963684B609960BB
:1016A0008C606160086103680133036030BD0469C8
:1016B000F3E70369416882688A60416851605A684B
:1016C000824206D0002202611A68013A1A60186844
:1016D000704782685A60F5E710B5040001F0CAF956
:1016E000A36B002B04D1012401F0D0F9200010BD20
:1016F0000024F9E710B5030008001A6C002A0AD08C
:10170000DC68A418DC6099688C4201D31968D96040
:10171000D96801F0D0FE10BD70B5050001F0AAF93E
:101720004523EC5C64B201E0013C64B2002C0BDDAB
:101730006B6A002B08D02800243000F0CDFD002873
:10174000F2D000F07FFEEFE74523FF22EA5401F0DC
:101750009DF901F08FF94423EC5C64B201E0013C97
:1017600064B2002C0BDD2B69002B08D02800103050
:1017700000F0B2FD0028F2D000F064FEEFE7442351
:10178000FF22EA5401F082F970BDF8B504000D00A3
:1017900000280FD0C36B002B0AD0026C00261F0C50
:1017A000100C391E0BD181B2002905D1002E16D0A4
:1017B00072B6FEE772B6FEE7011C181C03E080B2A9
:1017C00000280AD1101C9BB292B2534380B289B256
:1017D00041431B0CCB181B0CE8D00126E6E701F0B7
:1017E00049F92268E36B206C010059435118A1604C
:1017F0000021A1636260013B4343D218E260FF23F2
:101800004422A3540132A354002D0FD12369002B8D
:1018100003D101F03BF90120F8BD2000103000F0A9
:101820005BFD0028F5D001F019F9F2E72000103037
:10183000FFF71AFF20002430FFF716FFE9E770B525
:101840001D00049C002909D12460E063216401216A
:101850002000FFF79AFF4C23E55470BD2260F4E7A7
:1018600070B584B01C0008AB1B78002C07D0002892
:1018700003D0002A05D0002905D172B6FEE772B662
:10188000FEE70029F9D150250395039D502D01D085
:1018900072B6FEE7039D4625012666550094FFF7C4
:1018A000CEFF200004B070BDF0B585B004000E007E
:1018B000019200280AD000290AD000F0C9FD051EB7
:1018C0000BD1019B002B42D072B6FEE772B6FEE749
:1018D000036C002BF1D072B6FEE7002537E0310033
:1018E0002000FFF707FF013FA7632369002B04D106
:1018F00001F0CCF8012005B0F0BD2000103000F060
:10190000EBFC0028F4D001F0A9F8F1E701F0BEF8F3
:101910000020F0E702A800F053FD013521E0442348
:101920000022E25428E045230022E25429E020006E
:10193000FFF7F2FE00F082FB09E02000FFF7ECFE6B
:1019400000F07CFB2000FFF7C7FE002835D101F036
:1019500091F8A76B002FC2D1019B002BD6D0002D90
:10196000D8D001F093F800F0A9FA01F083F84423ED
:10197000E35C5BB20133D2D04523E35C5BB201335D
:10198000D1D001F083F801A902A800F025FD0028BC
:10199000D3D12000FFF7A0FE0028C8D00199200075
:1019A000243000F063FC2000FFF7B6FE00F046FB99
:1019B0000028CCD101F052F8C9E700209BE70000D5
:1019C00030B5002804D000291ED00024002205E0F4
:1019D00072B6FEE70D4BEC1814E00132072A0FD85F
:1019E0000A4BD5005B195B688342F3D0002CF4D11D
:1019F000064BD500EB58002BEFD1044BEC18ECE76D
:101A0000002C01D02160606030BDC046F400002091
:101A100070B504000D00160001F02CF84423E35CBF
:101A20005BB201330DD04523E35C5BB201330CD0D4
:101A300001F02CF8A36B002B0BD02000FFF76CFEFD
:101A400070BD44230022E254EDE745230022E25416
:101A5000EEE7200024303200290000F019FCECE70A
:101A6000084B1B681B68002B04D1074B0122524214
:101A70001A607047034B1B68DB681A68024B1A60D8
:101A8000F7E7C046AC01002044010020F0B583B068
:101A900000900F00150001930A9E306B9200A52163
:101AA00001F08CFC346B1C4BEB189B00E4180722F4
:101AB00094437464002F0DD000220F2A07D8B95C1C
:101AC000B31834331970002901D00132F5E74323EC
:101AD0000022F254089B372B01D972B6FEE7089B0F
:101AE000F3623365301DFFF7CAFD30001830FFF791
:101AF000C6FD36613823089A9B1AB3617662019A53
:101B00000099200000F096FF3060099B002B00D068
:101B10001E6003B0F0BDC046FFFFFF3F70B500245C
:101B200007E0A3001B1998000E4BC018FFF79CFD9F
:101B30000134372CF5D90C4D2800FFF795FD0B4CDF
:101B40002000FFF791FD0A48FFF78EFD0948FFF7D7
:101B50008BFD0948FFF788FD084B1D60084B1C6092
:101B600070BDC046D8010020C4010020B001002093
:101B7000940100208001002068010020AC010020B9
:101B8000A801002010B5040000F074FF284A136873
:101B900001331360274B1B68002B0CD0264B1B68AE
:101BA000002B0DD1234B1B68DA6AE36A9A4207D8EF
:101BB000204B1C6004E01F4B1C601368012B31D0CC
:101BC0001E4A136801331360A364E16A1C4B1B684F
:101BD000994201D91A4B19601A4A8B005B189B0075
:101BE000D3185B68A3609868E060211D416099602C
:101BF000E06A830019188900891861611918890041
:101C0000895801311B189B00995000F03FFF0A4B87
:101C10001B68002B05D0074B1B68DA6AE36A9A42FF
:101C200003D310BDFFF77AFFCAE700F017FFF8E70C
:101C300064010020380600205801002048010020DF
:101C40005C010020D801002010B504006123C35CB2
:101C5000002B05D0012B0AD0022B07D072B6FEE76D
:101C6000006B01F05BF8200001F058F810BD01F0A6
:101C700055F8FBE710B514E000F0FCFE0B4BDB68F9
:101C8000DC68201DFFF715FD094A1368013B13604E
:101C9000084A1368013B136000F0F8FE2000FFF7CC
:101CA000D3FF044B1B68002BE6D110BD8001002040
:101CB000640100207C01002010B5FFF7DBFF034B1F
:101CC0001B68012BF9D900F0C9FEF6E7D801002006
:101CD00070B504000D001D4B1E681D4B18680430C4
:101CE000FFF7E7FC631C0DD03419194B1B685C60CF
:101CF000A6421DD9174B1868154B19680431FFF718
:101D0000C1FC70BD002DEFD0134A5168104B18680C
:101D1000816018688C68C460186804306060186856
:101D2000043088601B685A61136801331360E8E768
:101D30000A4B1868064B19680431FFF7A3FC084BDF
:101D40001B68A342DDD9064B1C60DAE76001002066
:101D500038060020A801002068010020AC01002006
:101D600044010020F0B587B004000D0016001F00EC
:101D70000D9B002B09D00E9B002B08D064230493ED
:101D8000049B642B05D072B6FEE772B6FEE772B60E
:101D9000FEE7049B642200210E9801F00FFB0E9BCE
:101DA0000D9A1A63612302220E99CA5400230393E9
:101DB000029105AB01930C9B00933B00320029007C
:101DC0002000FFF763FE0E98FFF7DCFE059807B0D2
:101DD000F0BDF0B587B00490059116001F0090008B
:101DE00000F030FF041E21D0642000F02BFF051E00
:101DF00016D06422002101F0E1FA2C630023039342
:101E000002950D9B01930C9B00933B0032000599BA
:101E10000498FFF73BFE2800FFF7B4FE012007E01F
:101E2000200000F07BFF0120404201E00120404201
:101E300007B0F0BD10B588B000240594069407AA39
:101E400006A905A800F0B0FD079A15491548059B9D
:101E50000293069B019300940023FFF783FF124B2C
:101E60001860002813D000F08DFC012810D172B644
:101E70000E4B012252421A600D4B02321A600D4B7A
:101E800000221A60FEF7FEFA00F068FE02E0002071
:101E9000013003D0084B1B6808B010BD72B6FEE7D6
:101EA000383A0008B91C0008400100204401002015
:101EB0005801002060010020103B0008024A13680E
:101EC000013313607047C0463C010020014B186885
:101ED0007047C04660010020F8B54D4B1B68002BD1
:101EE00000D08FE04B4B1E6801361E60002E12D1D1
:101EF000494B1B681B68002B01D072B6FEE7464AAF
:101F00001168464B186810601960454A1368013320
:101F10001360FFF7A5FD434B1B68B34211D90020A6
:101F2000414B1B68D96A414A8B005B1899008B585A
:101F3000012B00D901203E4B1B68002B67D00120EC
:101F400065E0002033E0374B012252421A60E7E798
:101F5000344B1A60E4E7D96851603EE00021996291
:101F6000116801391160DA6A324909688A4201D977
:101F700030490A602D499400A418A2008A185268BA
:101F80009A609468DC6065609560DC6AA20017194D
:101F9000BD006D185D61BD006D580135BC00655018
:101FA000DA6A214B1B68DB6A9A4200D901201A4B7E
:101FB0001B681B68002BC6D0174B1B68DB68DB68EF
:101FC0005A689642C4D35A699C68D968A1609C68D3
:101FD0004C6051681D1DA942BDD000215961116896
:101FE000013911609A6A002ABDD0DC69196AA160C2
:101FF000DC694C605468190018318C42AED1196A02
:102000005160ABE70C4A1368013313600020F8BD40
:102010003C01002060010020AC010020A80100204C
:102020004C0100204401002038060020D801002087
:10203000500100205C0100205401002010B5474BE6
:102040001B68002B01D172B6FEE700F013FD434B75
:102050001A68013A1A601B68002B7AD1404B1B6842
:10206000002B07D1002475E0196A516015E0D9688A
:10207000516021E000233B4A1268002A4AD0394BC4
:10208000DB68DB689A6AD869196A8160D869486038
:102090005068190018318842E6D000219962116811
:1020A000013911605A699868D968816098684860F8
:1020B00051681C1DA142DAD0002159611168013913
:1020C0001160D86A284A1268904201D9264A1060E5
:1020D00026498200121892008A1852689A60906805
:1020E000D86044609460DC6AA20010198000401837
:1020F0005861101980004058013012199200505058
:10210000D96A1B4A1268D26A9142B4D3194A012192
:102110001160B0E7002B01D0FFF7A2FC164B1C6842
:10212000002C0AD1134B1C68002C13D000F096FC35
:1021300001240FE0013C002C07D0FFF7CDFE002862
:10214000F8D00C4B01221A60F4E70B4B00221A6006
:10215000E8E7002400F09AFC200010BD3C010020BC
:1021600064010020940100205C010020D8010020BF
:1021700038060020500100205401002010B5041E34
:102180000FD0094B1B68002B01D072B6FEE7FFF79A
:1021900095FE00212000FFF79BFDFFF74FFF002871
:1021A00001D100F05BFC10BD3C01002010B5284BB4
:1021B0001B68002B03D0274B01221A6010BD254B52
:1021C00000221A60FEF75FF9234B18601A68234B50
:1021D0001B689A4207D9204A1268D21A204B196804
:1021E0008B6D9B188B651C4B1A681C4B1A601D4B22
:1021F0001A681D4993009B189B005B58002B05D162
:10220000002A01D0013AF4E772B6FEE70800930015
:102210009918890041184C6864684C609B189B00B1
:1022200008331B189C420BD00F4B91008918890072
:102230005B185B68D9680A4B19600A4B1A60BDE7E6
:102240006068094B9100891889005B185860EBE7BA
:102250003C01002050010020340100203801002002
:10226000380600205C010020D801002010B50C00C9
:10227000002809D0054B19681831FFF703FA01212E
:102280002000FFF725FD10BD72B6FEE738060020DE
:1022900070B5030008001100002B18D05C680D4ACF
:1022A0001568EC611568A6682E62156818357560AA
:1022B00015681835A560126893621A6801321A60B1
:1022C000002901D001204042FFF702FD70BD72B627
:1022D000FEE7C0463806002010B5C368DB68002B57
:1022E0004CD09A6AD869196A8160D8694860516887
:1022F00018001830814243D00021996211680139D9
:102300001160294A1268002A40D15A699868D96830
:1023100081609868486051681C1DA14233D000213B
:102320005961116801391160D86A204A12689042D7
:1023300001D91E4A10601E498200121892008A18A4
:1023400052689A609068D86044609460DC6AA20029
:102350001019800040185861101980004058013051
:10236000121992005050DA6A124B1B68DB6A9A42CB
:1023700018D9114B01221A60012010BD72B6FEE778
:10238000196A5160B8E7D9685160C8E70B4A5168CB
:10239000D9618C681C62606088609A621168013142
:1023A0001160E0E70020E8E73C0100205C0100202C
:1023B000D8010020380600205001002094010020A0
:1023C000034B1B680360034B1B6843607047C046A8
:1023D0004C01002060010020F8B504000D00002829
:1023E00015D0002915D000F045FB144B196863681F
:1023F000C81A2A68561C1CD02768114E3668B74286
:1024000009D08B4207D800232B60012412E072B65A
:10241000FEE772B6FEE7824203D800232B60012458
:1024200008E05B1A9B182B602000FFF7C9FF00240F
:1024300000E0002400F02AFB2000F8BD600100202D
:102440004C010020014B01221A607047500100200E
:10245000064B1B68002B07D0054B1B68002B01D0D7
:10246000002002E0022000E0012070475801002017
:102470003C010020074B1A681368002B06D101337A
:102480000360002B04D1D368186870470023F7E776
:102490000020FAE73C07002010B54160006191423E
:1024A0000CD8D21A83699A4201D3012010BD011DB4
:1024B000094B1868FFF7E6F80020F7E79A4201D2C7
:1024C000994206D2011D054B1868FFF7DBF8002082
:1024D000ECE70120EAE7C046380700203C0700206F
:1024E00070B504000D00160004E0A369ED18236A1E
:1024F00020009847A16949192B0032002000FFF7FE
:10250000CBFF0028F1D170BD70B505000E000C4B5B
:102510001B68DB68DC68201DFFF7CBF82823E35C31
:102520005A0707D4012293432732A354236A200079
:10253000984770BD320029002000FFF7D1FFF5E772
:102540003C07002010B505E0DB681868012149420E
:10255000FFF7DAFF054B1B681A68002AF4D1034A1B
:102560000349086810600B6010BDC0463C0700209E
:102570003807002070B50500FFF7A8FC0400074BE2
:102580001B68834205D800232B60044B1C6020008D
:1025900070BDFFF7D7FF01232B60F6E72C07002063
:1025A00070B582B004000D00FFF788FC01A8FFF7AA
:1025B000E1FF0600019B002B22D1002D14D1A04287
:1025C0000BD2A11B104B18682A00FFF721FAFFF766
:1025D00035FD002811D002B070BDFFF72FFD31008E
:1025E0002000FFF791FFF6E7084A12681268002AF8
:1025F00001D10125E5E71D00E3E700F02FFAEAE746
:10260000FFF71CFDE7E7C04634070020380700202D
:1026100030B587B002E0029B002B0FDA354B18680B
:10262000002202A9FFF740F9002860D0029B002B8E
:10263000F1DA039B049805999847ECE7049C6369D9
:10264000002B02D0201DFFF734F801A8FFF792FFFE
:102650000500029B092BE1D89B00274AD3589F46CF
:102660002822A35C01210B43A354039BA1695918A1
:1026700002002000FFF710FF0028CFD02823E35CE2
:102680005A0707D4012293432732A354236A200018
:102690009847C3E70399A369C9182A002000FFF7E8
:1026A0001FFFF3E72822A35C01218B43A354B5E766
:1026B0002822A35C01210B43A3540399A1610029A3
:1026C00006D00918030002002000FFF7E5FEA5E789
:1026D00072B6FEE72823E35C9A0704D501229343F0
:1026E0002732A3549AE7200000F018FB96E707B0C2
:1026F00030BDC04634070020143B000800B583B04D
:1027000001A8FFF7B7FE0199FFF74AFFFFF780FF27
:10271000F6E7000030B583B000F0ACF9114B1B6850
:10272000002B03D000F0B2F903B030BD0E4D2800ED
:10273000FEF79AFF0D4C2000FEF796FF0C4B1D6034
:102740000C4B1C600C4B0D4A0021009110310A20EB
:10275000FFF786F8034B18600028E3D00849FFF71D
:102760002FF9DFE73407002054070020400700203E
:102770003C070020380700203C0600208C06002083
:10278000403A000800B589B0FFF7C4FF104B1B6842
:10279000002B1AD000230593069307AA06A905A8C3
:1027A00000F00EF9079A0B490B48059B0293069B14
:1027B0000193022300930023FFF7D4FA074B18601C
:1027C000002802D0012009B000BD72B6FEE7C04665
:1027D00034070020483A0008FD2600083007002092
:1027E00010B5EFF30584002C02D00124200010BDA9
:1027F000FFF72EFE0128F9D0EFF31084002CF5D05E
:102800000124F3E710B5054B1B68FFF721FE0128F3
:1028100000D110BD00F076F9FBE7C04610E000E003
:1028200010B5FFF7DDFF00280AD1FFF711FE0128E0
:1028300009D1084B1868002808D101221A6010BD80
:1028400006204042FBE701204042F8E701204042D9
:10285000F5E7C046300C002010B5FFF7C1FF002897
:1028600013D1FFF7F5FD012812D10C4B1B68012B8A
:1028700011D10B4AD3691B021B0AD361074B0222F9
:102880001A60FFF7D7FA002010BD06204042FBE790
:1028900001204042F8E701204042F5E7300C0020DB
:1028A00000ED00E0F0B5C64600B586B005000E00AC
:1028B000140000230593FFF793FF002838D1002D63
:1028C00036D0002C2BD02168A369002B00D11833FF
:1028D0005A1E372A52D86268D20751D46769002F2E
:1028E00011D0BA089046A068002807D0E268632A91
:1028F00004D92269002A01D0002F1ED1002805D05A
:102900000120404210E080229046ECE7E068002879
:1029100015D12069002815D00120404204E0210093
:10292000002018238022904601280DD0002817D0BF
:10293000059806B080BCB846F0BD0120F4E7012040
:102940004042F1E70020EFE72069A468029401907B
:102950000093330042462800FFF704FA0590E7E7AA
:10296000424692B205A80190009333002800FFF779
:1029700030FA0128DCD000230593D9E70020D8E7FE
:102980000020D6E710B50400FFF72AFF002808D181
:10299000002C01D1002010BD2000FFF7EFFB00202C
:1029A000F9E706204042F6E7034B0360034B0B6058
:1029B000802313607047C046CC0B0020CC09002058
:1029C000034B0360034B0B60802313607047C046CA
:1029D000680900206807002082B000230193064B9D
:1029E0001B68013301D072B6FEE772B6019B002B63
:1029F000FCD002B07047C0460C0000200000000070
:102A00000B4A13681868203080F30988022080F38D
:102A10001488BFF36F8F3FBCAE4608BC04BC62B6DF
:102A20001847C046C046C046C046C046C046C0461D
:102A30003806002010B5031F802464041C60043B8A
:102A40001960044B01000C390B600300203B1A6035
:102A5000403810BDD929000870470000044B80227F
:102A600052051A60BFF34F8FBFF36F8F7047C04698
:102A700004ED00E072B6044A136801331360BFF33B
:102A80004F8FBFF36F8F70470C000020064B1B6801
:102A9000002B01D172B6FEE7013B034A1360002B05
:102AA00000D162B67047C0460C000020EFF31080E2
:102AB00072B6704780F31088704700000000000075
:102AC000EFF309800E4B1A6820381060F0C04446BE
:102AD0004D4656465F46F0C008B572B6FFF766FB36
:102AE00062B60CBC116808681030F0C8A046A94650
:102AF000B246BB4680F309882038F0C81847C04664
:102B00003806002010B5FFF7D1FF0400FFF7E4F905
:102B1000002803D0034B802252051A602000FFF7E3
:102B2000C9FF10BD04ED00E010B5084C0023236080
:102B3000074A1360074B1868FA218900FDF7C0FAAD
:102B40000138054B18600723236010BD10E000E03A
:102B500018E000E00800002014E000E010B50C4B85
:102B60001968FF2212040A431A601968FF2212062C
:102B70000A431A60FFF7D8FF064B00221A60FFF7DE
:102B80003FFFFFF713FBFFF727FF002010BDC046F4
:102B900020ED00E00C000020104A53071BD0D11D8F
:102BA0000723994380235B015B1A9B180A000C489A
:102BB000026000214160D318083B07208343094885
:102BC000036059601960991A51601360064B1960CF
:102BD000064B1960704780235B01E8E7500C00202A
:102BE000480C0020440C00203C0C0020400C00202D
:102BF00010B5124B1A001B688342FBD3516854185E
:102C0000844208D041684418A34209D0036090422E
:102C100000D0106010BD4068091851601000F1E745
:102C2000074C2468A34206D05B68C918416013684A
:102C30001B680360EBE70460E9E7C046480C00202E
:102C4000440C002070B50500FFF738F92E4B1B68C7
:102C5000002B0CD0002D0ED007232B401022D21AAF
:102C6000113BAB4206D3AD1805D5002640E0FFF777
:102C700093FFEFE70025002D39D0244B1B68AB42B2
:102C80003CD3234A146801E022001C006368AB4275
:102C900002D22368002BF7D11B4B1B68A3422FD015
:102CA000166808362368136063685B1B102B08D90D
:102CB0006019420701D072B6FEE743606560FFF716
:102CC00097FF626811490B689B1A0B6011490968EC
:102CD0008B4201D20F490B6080231B0613436360B4
:102CE000002323600C4A13680133136000E00026C0
:102CF000FFF7A4F9730705D072B6FEE70026F7E7E1
:102D00000026F5E7300070BD440C0020400C002088
:102D1000480C00203C0C0020380C002070B5002826
:102D200022D00500083D6B68002B01DB72B6FEE780
:102D30000200083A1268002A01D072B6FEE708388D
:102D400004005B005B084360FFF7B8F86168074A5E
:102D500013685B1813602800FFF74AFF044A1368E2
:102D600001331360FFF76AF970BDC046400C0020C4
:102D7000340C002070B588B0174B5A6B01242243E5
:102D80005A635A6B22400092009A5A6B22435A634C
:102D90005A6B22400192019ADA6B802189020A4320
:102DA000DA63DB6B0B400293029B0423039302253F
:102DB0000495069505940794A026F60503A930000E
:102DC000FEF72EF8082303930495079403A9300017
:102DD000FEF726F808B070BD0010024000B587B0BD
:102DE000002817D10D4A516B012319435163526BCF
:102DF0001A400092009A202201920293002303932A
:102E000003330493A03001A9C005FEF709F80020A0
:102E100007B000BD02204042FAE7C0460010024061
:102E200030B587B005001C4A506B0423184350632B
:102E3000526B13400093009B80239B01019302235C
:102E400003930493002908D10023029301A9134896
:102E5000FDF7E6FF002007B030BD114B029301A93A
:102E60000E48FDF7DDFF6C006419A4000D4BE4185B
:102E7000802189012000FEF7D1F80B4A00212000B3
:102E8000FEF7BAF800220F210720FDF731FD0720D9
:102E9000FDF732FDDEE7C04600100240000800509A
:102EA00000002110E81C0020AF2E0008704710B56C
:102EB0000020FFF7FBFF10BD10B50B4B1B68036034
:102EC0000B6843600C2343614B8903614B6883604B
:102ED0000B89C3608B89836180231B02C36100233C
:102EE0004362FEF781FB10BD1000002070B50D009D
:102EF00000280DD194244443084BE4182000FFF728
:102F000039FF29002000FFF7D7FF002803D170BD4B
:102F100002204042FBE704204042F8E7541C002016
:102F200070B51400064B1D78012392B294206843BB
:102F3000044D40195B42FEF76EFA200070BDC0469A
:102F4000501C0020541C00200D488546FEF784FBD1
:102F5000002103E00B4B5B58435004310A480B4BF4
:102F600042189A42F6D30A4A02E000231360043260
:102F7000084B9A42F9D300F077FAFDF737FAFEE7EB
:102F800000300020443B00080000002070000020BA
:102F900070000020441E0020FEE70000002310B552
:102FA000040003604360836081814366C2810361E2
:102FB00043618361190008225C3000F0FFF90B4B7C
:102FC000246263620A4BA3620A4BE3620A4B2363E7
:102FD0000A4B9C4205D00A4B9C4202D0094B9C42B2
:102FE00003D12000583000F063FA10BDE53100082D
:102FF0000D3200084532000871320008F41C002030
:103000005C1D0020C41D002010B5034A034904487C
:1030100000F06CF810BDC04614000020CD37000849
:103020002400002041680B4B10B50400994201D0E8
:1030300000F0CCFBA168084B994202D0200000F0C0
:10304000C5FBE168054B994202D0200000F0BEFBB1
:1030500010BDC046F41C00205C1D0020C41D0020D3
:1030600010B5094B094A04211A6009480022FFF7EC
:1030700095FF012209210748FFF790FF0222122144
:103080000548FFF78BFF10BD2C1E002009300008FB
:10309000F41C00205C1D0020C41D002010B5024857
:1030A00000F007FA10BDC046351E002010B50248DA
:1030B00000F000FA10BDC046351E002010B5040017
:1030C000FFF7ECFF236A002B02D0FFF7EFFF10BDE4
:1030D000044B2362044B1B68002BF6D1FFF7C0FFA3
:1030E000F3E7C046253000082C1E0020F7B5140079
:1030F000002600900191A5686768013F04D5246807
:10310000002CF8D13000FEBDAB89012B08D90E226E
:10311000AB5E013304D029000098019B9847064319
:103120006835EAE7036A70B505000E008468002B75
:1031300001D1FFF7C3FF636EDB0705D4A3899B05AD
:1031400002D4A06D00F0B5F9A3891B0702D523694D
:10315000002B1FD12100280000F0D2F8002819D040
:1031600001256D42636EDB0705D4A3899B0502D45C
:10317000A06D00F09FF9280070BD0136A360002B00
:1031800004DAA2699A4216DC0A2914D023685A1C70
:1031900022601970A3683178013B0029EDD1A3604A
:1031A000002B0FDA220028000A3100F067F8013006
:1031B000D6D00A25D6E72200280000F05FF80130BB
:1031C000E8D1CDE723685A1C22600A221A70F0E782
:1031D00010B5034B01001868FFF7A4FF10BDC046EF
:1031E0002000002070B50C000E25495F00F014F996
:1031F000002803DB636D1B18636570BDA389024A59
:103200001340A381F9E7C046FFEFFFFFF8B51F00A9
:103210008B8905000C001600DB0505D50E23C95E61
:103220000022022300F0E4F8A389054A2800134095
:10323000A38132000E23E15E3B0000F001F9F8BDEE
:10324000FFEFFFFF70B50C000E25495F00F0D0F8CE
:10325000A389421C03D1054A1340A38170BD80227B
:1032600052011343A3816065F8E7C046FFEFFFFFFB
:1032700010B50E23C95E00F0A9F810BDF8B5060020
:103280000D001400002804D0036A002B01D1FFF7C1
:1032900015FFA369A360A3891B0702D52369002B2F
:1032A00009D12100300000F02BF8002803D00125BF
:1032B0006D422800F8BD23692068EFB2C01A636927
:1032C000EDB2834205DC2100300000F07FFA0028D7
:1032D000EDD1A3680130013BA36023685A1C226032
:1032E0001F706369834204D0A389DB07E1D50A2DEF
:1032F000DFD12100300000F069FA0028D9D0D6E7EC
:103300002D4B70B5050018680C00002804D0036A26
:10331000002B01D1FFF7D2FE0C22A35E1A0723D4A3
:10332000DA0607D409222A60402201201343A38130
:1033300040423AE05B0713D5616B002908D02300B7
:103340004433994202D0280000F0BEF800236363A2
:103350002422A3899343A38100236360236923600C
:103360000823A2891343A3812369002B0BD1A02139
:103370008022A389890092000B40934203D0210050
:10338000280000F079FA0C22A35E01211A000A40FD
:103390000B420BD00022A26062695242A26100205F
:1033A0002269824201D11A06BED470BD990700D4A9
:1033B0006269A260F3E7C046200000200300821883
:1033C000934200D1704719700133F9E7002370B5BB
:1033D000064D040008002B6000F0C6FA431C03D120
:1033E0002B68002B00D0236070BDC046301E00202B
:1033F00070B50400080011001A000023054D2B6071
:1034000000F0CAFA431C03D12B68002B00D02360C4
:1034100070BDC046301E002070B5040008001100C9
:103420001A000023054D2B6000F0BEFA431C03D1A7
:103430002B68002B00D0236070BDC046301E0020DA
:1034400070B50400080011001A000023054D2B6020
:10345000FFF766FD431C03D12B68002B00D02360CF
:1034600070BDC046301E002070B500260C4C0D4DBE
:10347000641BA410A64209D1002600F0ABFA0A4C46
:103480000A4D641BA410A64205D170BDB300EB58D1
:1034900098470136EEE7B300EB5898470136F2E75C
:1034A0003C3B00083C3B0008403B00083C3B00081C
:1034B000704770477047002310B59A4200D110BD85
:1034C000CC5CC4540133F8E770B505000C1E10D075
:1034D000043C2368002B00DAE418280000F0E0F830
:1034E0001D4A1368002B05D163601460280000F0AA
:1034F000DFF870BDA34208D9206821188B42F3D1B0
:1035000019685B6809182160EEE71A005B68002BF8
:1035100001D0A342F9D911685018A0420BD12068FC
:103520000918501811608342E0D118685B6841188F
:1035300011605360DAE7A04202D90C232B60D5E773
:10354000206821188B4203D119685B680918216033
:1035500063605460CAE7C0463C1E002070B50F4E41
:103560000D0031680400002902D100F0EBF9306051
:103570002900200000F0E6F9431C03D101256D422B
:10358000280070BD0323C51C9D43A842F8D0291A0A
:10359000200000F0D7F90130F2D1EFE7381E00200B
:1035A000F7B50322CB1C9343083305001F000C2BF7
:1035B00034D20C27B94233D8280000F071F8374EC6
:1035C00033681C00002C2FD139002800FFF7C6FFFC
:1035D0000400431C5FD134680094009B002B4AD147
:1035E000002C52D023682800E3180099019300F0C2
:1035F000A9F9019B834248D123682800FF1A3900AA
:10360000FFF7ACFF013040D02368DB19236033683B
:103610005A68002A33D1009B336019E0002BC9DAC5
:103620000C232B600020FEBD2168C91B20D40B2970
:103630000AD9E2192760A34204D13260636811609D
:10364000536005E05A60F9E76268A3420ED1326028
:10365000280000F02DF8200007220B30231D904396
:10366000C21A9842DFD01B1AA350DCE75A60EFE77A
:1036700023006468A6E7009C63680093ADE71A0026
:103680005B68A342FBD10023DAE70C2328002B6000
:1036900000F00EF8C6E70760DAE7C0463C1E0020DF
:1036A00010B50248FFF705FF10BDC046341E0020CC
:1036B00010B50248FFF7FEFE10BDC046341E0020C4
:1036C000F7B50C228B5E05000C001A0756D44A6829
:1036D000002A02DC0A6C002A4EDDE76A002F4BD07C
:1036E000002280202E682A601A004001216A0240D0
:1036F000034233D0626DA3895B0706D56368D21A93
:10370000636B002B01D0236CD21A00232800E76AD8
:10371000216AB847A289431C06D129681D2946D8C9
:10372000294BCB40DB0742D500236360236923602C
:10373000D20405D5431C02D12B68002B00D1606553
:10374000616B2E60002917D023004433994202D0C8
:103750002800FFF7B9FE002363630DE00123280072
:10376000B8470200431CC6D12B68002BC3D01D2BC9
:1037700001D0162B1AD12E6000201EE00E69002EFB
:10378000FAD00F680E60BA1B019200229B0700D18D
:103790004A69A260019B002BEEDDA36A32001F0084
:1037A0002800019B216AB847002807DCA289402332
:1037B000012013431BB2A3814042FEBD019B36187A
:1037C0001B1A0193E6E7C046010040200B6970B563
:1037D00005000C00002B02D10025280070BD002838
:1037E00004D0036A002B01D1FFF768FC0C22A35E12
:1037F000002BF1D0626ED20704D49B0502D4A06DD9
:10380000FFF757FE28002100FFF75AFF636E0500FF
:10381000DB07E2D4A3899B05DFD4A06DFFF74AFE46
:10382000DBE7000070B50E001D000E23C95E14001A
:1038300096B000290CDAB2898023110019401A428F
:1038400014D18023DB0000202960236016B070BDF6
:103850006A4600F053F80028EDDBF02301991B02C3
:103860001940044BC9184B425941EAE70021402353
:10387000E9E7C04600E0FFFFF0B502268B890500AE
:103880000C0085B0334207D0230047332360236107
:103890000123636105B0F0BD03AB02AAFFF7C2FFCD
:1038A000029F019039002800FFF77AFE002808D116
:1038B0000C22A35E9A05EDD4032293431E43A681F6
:1038C000E2E78023A28920601343A381039B206148
:1038D0006761002B0CD028000E23E15E00F020F879
:1038E000002805D00323A2899A43023B1343A381F6
:1038F000A389019A1343A381CCE70000002370B58C
:10390000064D0400080011002B6000F035F8431C40
:1039100003D12B68002B00D0236070BD301E002027
:10392000002370B5064D040008002B6000F02CF851
:10393000431C03D12B68002B00D0236070BDC04610
:10394000301E0020002370B5064D040008002B60D7
:1039500000F032F8431C03D12B68002B00D0236009
:1039600070BDC046301E002058220120014B40424D
:103970001A607047301E002058220120014B40423F
:103980001A607047301E00205822024B00201A6037
:103990007047C046301E002058220120014B404293
:1039A0001A607047301E002058220120014B40420F
:1039B0001A607047301E0020044A03001068002877
:1039C00002D0C318136070470148FAE7401E002078
:1039D000481E0020F8B5C046F8BC08BC9E4670479B
:0C39E000F8B5C046F8BC08BC9E46704715
:1039EC0048656C6C6F204672656552544F53210DBF
:1039FC000000000048656C6C6F2066726F6D20745F
:103A0C006865207365636F6E64207461736B210D40
:103A1C00000000007365636F6E645461736B00008B
:103A2C0064656661756C745461736B0049444C45F4
:103A3C0000000000546D725100000000546D7220A3
:103A4C0053766300203A00080000000000000000DC
:103A5C000000000000000000000200001800000040
:103A6C0000000000000000002C3A000800000000DC
:103A7C000000000000000000000000000002000038
:103A8C00180000000000000000000000010002000F
:103A9C000400060008000A000C0010002000400082
:103AAC008000000100000000000000000000000089
:103ABC0000000000010000000200000003000000F4
:103ACC0004000000000000000000000000000000E6
:103ADC0000000000000000000000000000000000DA
:103AEC0000000000010000000200000003000000C4
:103AFC0004000000060000000700000008000000A1
:103B0C0009000000370000001C2600086026000891
:103B1C0060260008A4260008B0260008D426000859
:103B2C006026000860260008A4260008B0260008BD
:043B3C004D0200082E
:043B40002102000856
:103B44000100000004000000006CDC02AAAAAAAA7A
:103B5400004400400000000003000000F41C0020AA
:103B64002400002000000000F41C00205C1D002044
:103B7400C41D002000000000000000000000000040
:103B84000000000000000000000000000000000031
:103B94000000000000000000000000000000000021
:103BA4000000000000000000000000000000000011
:0400000508002F4977
:00000001FF
